:100000000C942A000C9447000C9447000C94470071
:100010000C9447000C9447000C9447000C94470044
:100020000C9447000C9447000C9447000C94470034
:100030000C9447000C9447000C9447000C94470024
:100040000C9447000C9447000C9447000C94470014
:100050000C94470011241FBECFE5D4E0DEBFCDBF16
:1000600012E0A0E6B0E0E4EBFBE002C005900D92E8
:10007000A638B107D9F722E0A6E8B2E001C01D9288
:10008000A738B207E1F70E945A010C94D8050C94E6
:10009000000081B38C6081BB8C98929A939800C0C9
:1000A00000C000000895929800C000C00000929A1D
:1000B00000C000C0000098E080E0880F8499816053
:1000C000939A00C0939800C09150B9F70895CF93C8
:1000D000C0E061E08C2F0E94B50283E20E947A02A8
:1000E000CF5FCC30B1F7C0E065E08C2F0E94B50245
:1000F00083E20E947A02CF5FCC30B1F7C1E06C2F6F
:1001000080E00E94B50283E20E947A026C2F8BE0AD
:100110000E94B50283E20E947A02CF5FC53079F770
:10012000CF910895CF93DF93C0E6D0E06A818881B4
:100130000E94B50280E40E947A02249680E0C437CF
:10014000D807A1F7DF91CF910895E0E6F0E0208194
:1001500031812817390729F422813381261737077F
:1001600041F0349620E0E437F20789F780E090E030
:10017000089581E090E008950F931F93CF93DF934C
:10018000CDB7DEB760970FB6F894DEBF0FBECDBF18
:100190001F926F931F928F9384E790E09F938F93AA
:1001A0008E010F5F1F4F1F930F930E94EE0240E0DE
:1001B00060E0C8010E94CD020FB6F894DEBF0FBE0A
:1001C000CDBF60960FB6F894DEBF0FBECDBFDF91F6
:1001D000CF911F910F91089542E064E085E890E08F
:1001E0000C94CD0242E062E08EE890E00C94CD02E7
:1001F0000F931F93CF93DF93CDB7DEB760970FB602
:10020000F894DEBF0FBECDBF1F928F9389E990E0B7
:100210009F938F938E010F5F1F4F1F930F930E9429
:10022000EE0244E060E0C8010E94CD020F900F9002
:100230000F900F900F900F9060960FB6F894DEBF5E
:100240000FBECDBFDF91CF911F910F910895EF9217
:10025000FF920F931F93CF93DF93EC018B017A01F1
:1002600081E0888384E0FB0180830E94A8020E94D1
:1002700067000E949200F801608188810E94BC00A2
:1002800062E08AE00E94B50284E20E947A02F801EC
:10029000608188810E94B5028AE20E947A02F70199
:1002A000108210928602DF91CF911F910F91FF90E3
:1002B000EF900895CF93DF9300D01F92CDB7DEB7B4
:1002C0000E9455020E94A8020E94490081E08B838F
:1002D00084E08A831982AE014F5F5F4FBE016E5F7B
:1002E0007F4FCE0103960E94270184E0F82EEE2472
:1002F000E394DD24D39480918602882399F10E94AF
:10030000F20083E00E94F8002FE38DE093E021509B
:1003100080409040E1F700C0000082E00E94F800B9
:100320002FE38DE093E0215080409040E1F700C042
:10033000000081E00E94F8002FE38DE093E021505F
:1003400080409040E1F700C00000AE014F5F5F4F7A
:10035000BE016E5F7F4FCE0103960E942701EB80A6
:10036000FA80C9CF8B818A3039F48A81823021F4B6
:100370008981811101C0D9828981882389F10E94F4
:10038000EC0083E00E94F8002FE38DE093E0215021
:1003900080409040E1F700C0000082E00E94F80039
:1003A0002FE38DE093E0215080409040E1F700C0C2
:1003B000000081E00E94F8002FE38DE093E02150DF
:1003C00080409040E1F700C00000AE014F5F5F4FFA
:1003D000BE016E5F7F4FCE0103960E9427018BCF37
:1003E0000E9453000B811A8180FD04C0133010F06D
:1003F000115011C081FD04C0143010F41F5F0BC0F8
:1004000082FD04C0023010F0015005C083FD03C01E
:100410000A3008F40F5F612F70E0802F90E00E9497
:10042000A500892B19F0D092860265CFE01202C098
:10043000F11641F16F2D8E2D0E94B5022AE0E212D5
:1004400005C082E0F81202C084E20BC06F2D70E09C
:100450008E2D90E00E94A500892B11F080E401C050
:1004600080E20E947A020B831A83612F802F0E9400
:10047000B5028AE20E947A026A818B810E94BC00E6
:10048000EB801A818FE493EC0197F1F700C0000034
:10049000F12E31CF813011F4C39A01C0C398C498B2
:1004A0006FB9779BFECFC49A089587B38C6B87BBD7
:1004B00081E58DB9C29887EA91E60197F1F700C00E
:1004C0000000C29A61E280E00E944A026AEB80E08A
:1004D0000E944A0264E080E00E944A0264E180E0F7
:1004E0000E944A0260E280E00E944A026CE080E0E2
:1004F0000C944A020F931F93CF93DF9390EE980FC3
:10050000913608F5C82F60E081E00E944A0285E03C
:10051000C89FE001112400E010E0F801EC0FFD1F7E
:10052000EB5FFF4F608181E00E944A020F5F1F4F27
:100530000530110591F760E081E0DF91CF911F91C7
:100540000F910C944A02DF91CF911F910F91089562
:10055000CF93DF93C8EFD1E060E081E00E944A02D0
:100560002197D1F7DF91CF910895CF93C82F862F90
:1005700066E00E94E20260E4690F80E00E944A02A5
:100580008C2F6CE00E94E20267E0969F602D1124A0
:10059000605880E0CF910C944A020F931F93CF9341
:1005A000DF938C01862F642F0E94B502E8018991A8
:1005B000882319F00E947A02FACFDF91CF911F9120
:1005C0000F910895991B79E004C0991F961708F0C0
:1005D000961B881F7A95C9F780950895AEE0B0E024
:1005E000E4EFF2E00C94AF050D891E8986E08C8360
:1005F0001A8309838FEF9FE79E838D83AE01475E49
:100600005F4F6F89788DCE0101960E941003EF81B4
:10061000F885E00FF11F10822E96E4E00C94CB05D4
:10062000ABE0B0E0E6E1F3E00C94A1056C017B01E6
:100630008A01FC0117821682838181FFCCC1CE0121
:1006400001963C01F6019381F70193FD859193FF9B
:1006500081917F01882309F4BAC1853239F493FD71
:10066000859193FF81917F01853229F4B60190E055
:100670000E940705E7CF912C212C312CFFE1F315C7
:10068000D8F08B3279F038F4803279F08332A1F4EB
:10069000232D20611DC08D3261F0803369F4232D3C
:1006A000216016C0832D8260382EE32DE4603E2E3B
:1006B0002AC0F32DF8601DC037FC2DC020ED280F97
:1006C0002A3040F08E32B9F436FC81C1232D2064EB
:1006D000322E19C036FE06C08AE0989E200D1124E5
:1006E000922E11C0EAE02E9E200D1124222EF32D11
:1006F000F0623F2E08C08C3621F4832D8068382E9E
:1007000002C0883641F4F70193FD859193FF8191F2
:100710007F018111B3CF982F9F7D9554933028F49A
:100720000C5F1F4F9FE399830DC0833631F08337F1
:1007300071F0833509F059C021C0F80180818983A7
:100740000E5F1F4F88248394912C530113C02801FE
:10075000F2E04F0E511CF801A080B18036FE03C0BC
:10076000692D70E002C06FEF7FEFC5010E94FC04AD
:100770004C018201F32DFF773F2E16C0280122E0A5
:10078000420E511CF801A080B18036FE03C0692DD5
:1007900070E002C06FEF7FEFC5010E94F1044C01D1
:1007A000F32DF0683F2E820133FC1BC0822D90E0B8
:1007B00088169906B0F4B60180E290E00E94070521
:1007C0002A94F4CFF50137FC859137FE81915F01C2
:1007D000B60190E00E94070521102A9421E0821AB8
:1007E00091088114910471F7E8C0843611F08936BC
:1007F00041F5F80137FE07C06081718182819381E4
:100800000C5F1F4F08C060817181072E000C880BA0
:10081000990B0E5F1F4FF32DFF763F2E97FF09C0F8
:1008200090958095709561957F4F8F4F9F4FF068A1
:100830003F2E2AE030E0A3010E944305882E86184F
:1008400045C0853731F4232D2F7EB22E2AE030E0CB
:1008500025C0932D997FB92E8F36C1F018F48835B5
:1008600079F0B5C0803719F0883721F0B0C0E92F92
:10087000E061BE2EB4FE0DC0FB2DF460BF2E09C09A
:1008800034FE0AC0292F2660B22E06C028E030E0D0
:1008900005C020E130E002C020E132E0F801B7FEFF
:1008A00007C060817181828193810C5F1F4F06C0F8
:1008B0006081718180E090E00E5F1F4FA3010E9474
:1008C0004305882E8618FB2DFF773F2E36FE0DC080
:1008D000232D2E7FA22E891458F434FE0BC032FC37
:1008E00009C0832D8E7EA82E05C0B82CA32C03C072
:1008F000B82C01C0B92CA4FE0FC0FE01E80DF11DFB
:100900008081803321F49A2D997EA92E09C0A2FE00
:1009100006C0B394B39404C08A2D867809F0B394CA
:10092000A3FC11C0A0FE06C0B21488F4280C922CBF
:100930009B180EC0B21460F4B60180E290E00E94F1
:100940000705B394F7CFB21418F42B1802C0982CF3
:10095000212CA4FE10C0B60180E390E00E940705A0
:10096000A2FE17C0A1FC03C088E790E002C088E5A2
:1009700090E0B6010CC08A2D867859F0A1FE02C025
:100980008BE201C080E2A7FC8DE2B60190E00E94FC
:100990000705891438F4B60180E390E00E9407054A
:1009A0009A94F7CF8A94F301E80DF11D8081B60186
:1009B00090E00E9407058110F5CF222009F442CE75
:1009C000B60180E290E00E9407052A94F6CFF60176
:1009D0008681978102C08FEF9FEF2B96E2E10C9406
:1009E000BD05FC010590615070400110D8F780955D
:1009F00090958E0F9F1F0895FC01615070400190EB
:100A00000110D8F7809590958E0F9F1F08950F9332
:100A10001F93CF93DF93FB01238121FD03C08FEF51
:100A20009FEF2CC022FF16C046815781248135815B
:100A30004217530744F4A081B1819D012F5F3F4FBE
:100A4000318320838C93268137812F5F3F4F3783FB
:100A5000268314C08B01EC01FB010084F185E02D9D
:100A60000995892BE1F6D80116968D919C911797DF
:100A7000019617969C938E931697CE01DF91CF9196
:100A80001F910F910895FA01AA27283051F12031C2
:100A900081F1E8946F936E7F6E5F7F4F8F4F9F4F12
:100AA000AF4FB1E03ED0B4E03CD0670F781F891F54
:100AB0009A1FA11D680F791F8A1F911DA11D6A0F22
:100AC000711D811D911DA11D20D009F468943F91D5
:100AD0002AE0269F11243019305D3193DEF6CF01D4
:100AE0000895462F4770405D4193B3E00FD0C9F79A
:100AF000F6CF462F4F70405D4A3318F0495D31FD07
:100B00004052419302D0A9F7EACFB4E0A695979559
:100B1000879577956795BA95C9F70097610571052F
:100B200008959B01AC010A2E069457954795379579
:100B30002795BA95C9F7620F731F841F951FA01DD3
:100B400008952F923F924F925F926F927F928F9271
:100B50009F92AF92BF92CF92DF92EF92FF920F934C
:100B60001F93CF93DF93CDB7DEB7CA1BDB0B0FB656
:100B7000F894DEBF0FBECDBF09942A883988488813
:100B80005F846E847D848C849B84AA84B984C884A9
:100B9000DF80EE80FD800C811B81AA81B981CE0FA0
:100BA000D11D0FB6F894DEBF0FBECDBFED01089585
:040BB000F894FFCFE7
:100BB400030004000500020006000400080003000E
:100BC40009000200583A20253032642020593A2086
:100BD4002530326400596F752057696E21004761D2
:100BE4006D65204F76657221004E65787420696EBC
:100BF4003A20256400000000000000005F000000AF
:100C040007000700147F147F14242A7F2A12231359
:100C140008646236495522500005030000001C2276
:100C240041000041221C0014083E081408083E0834
:100C34000800503000000808080808006060000040
:100C440020100804023E5149453E00427F400042C4
:100C5400615149462141454B311814127F102745F3
:100C64004545393C4A49493001710905033649492A
:100C74004936064949291E0036360000005636001A
:100C840000081422410014141414140041221408FE
:100C94000201510906324979413E7E1111117E7FCC
:100CA400494949363E414141227F4141221C7F4905
:100CB4004949417F090909013E4149497A7F0808A8
:100CC400087F00417F41002040413F017F081422FA
:100CD400417F404040407F020C027F7F0408107F28
:100CE4003E4141413E7F090909063E4151215E7F53
:100CF40009192946464949493101017F01013F400B
:100D040040403F1F2040201F3F4038403F631408AD
:100D1400146307087008076151494543007F414146
:100D24000002040810200041417F00040201020473
:100D34004040404040000102040020545454787F55
:100D4400484444383844444420384444487F385460
:100D5400545418087E0901020C5252523E7F080472
:100D6400047800447D40002040443D007F10284426
:100D74000000417F40007C041804787C0804047857
:100D840038444444387C14141408081414187C7C23
:100D9400080404084854545420043F4440203C4070
:100DA40040207C1C2040201C3C4030403C44281007
:100DB40028440C5050503C4464544C440008364180
:100DC4000000007F000000413608001008081008E9
:060DD4007846414678005C
:00000001FF
