:020000020000FC
:100000000C943C0004E00EBF0FE50DBF08951FEFF8
:1000100029E11A95F1F72A95E1F7089500EB07BB5E
:10002000C49AC69A01ED0DB9789408950FB9EFDF1F
:1000300008959798C498FADFC49A0895979AC49837
:10004000F5DFC49A089581B3806C81BB8FEB82BBCE
:10005000969A01E20E9419000AEB0E94190004E03E
:100060000E94190004E10E94190000E20E94190098
:100070000CE00E94190008950E940E000E942300C7
:100080000E944E000E945B000E944E000E94680089
:100090000E947500FFCF00E0D1DF08950FE7CEDFAB
:1000A00008E0CCDF04E1CADF02E2C8DF01E4C6DF1A
:1000B0000E944B0008950FE3C1DF00E4BFDF00E4BE
:1000C000BDDF00E4BBDF0FE3B9DF0E944B00089502
:1000D00000E0B4DF01E4B2DF0FE7B0DF01E4AEDF40
:1000E00000E0ACDF0E944B0008950FE7A7DF04E0BB
:1000F000A5DF08E0A3DF00E1A1DF0FE79FDF0E949B
:040100004B00089513
:00000001FF
