S00F000068656C6C6F2D632E7372656371
S11300000C942A000C943F000C943F000C943F0085
S11300100C943F000C943F000C943F000C943F0060
S11300200C943F000C943F000C943F000C943F0050
S11300300C943F000C943F000C943F000C943F0040
S11300400C943F000C943F000C943F000C943F0030
S11300500C943F0011241FBECFE5D4E0DEBFCDBF1A
S113006010E0A0E6B0E0E6E7F1E002C005900D92F2
S1130070AA37B107D9F70E9466000C94B9000C9412
S11300800000882321F088B3886088BB03C088B34C
S1130090877F88BB88B38F7E88BB90E011C06623BE
S11300A024F488B3806288BB03C088B38F7D88BB87
S11300B088B3806888BB660F88B38F7788BB9F5FDF
S11300C0983068F388B3806188BB089587B38C6BDC
S11300D087BB88B38B7F88BB83EC99E00197F1F7EA
S11300E000C0000088B3846088BB61E280E00E94A5
S11300F0410061EB80E00E94410064E080E00E94E6
S1130100410064E180E00E94410060E280E00E94DE
S113011041006CE080E00E944100C0E0D0E005C0F6
S113012060E081E00E9441002196C83F91E0D90738
S1130130B8F3D0E01BC08D2F90E0FC01EE0FFF1F41
S1130140EE0FFF1FE80FF91FE05AFF4FEC0FF11DF0
S1130150608181E00E944100CF5F01C0C0E0C530F2
S113016050F360E081E00E944100DF5FD530B0F3DE
S1090170FFCFF894FFCF5D
S11301767F0808087F385454541800417F40000013
S10D0186417F40003844444438002F
S9030000FC
