S0180000706364383534342D61746D65676131362E73726563FD
S11300000C942A000C943F000C943F000C943F0085
S11300100C943F000C943F000C943F000C943F0060
S11300200C943F000C943F000C943F000C943F0050
S11300300C943F000C943F000C943F000C943F0040
S11300400C943F000C943F000C943F000C943F0030
S11300500C943F0011241FBECFE5D4E0DEBFCDBF1A
S113006012E0A0E6B0E0E0E2F2E002C005900D92FA
S1130070AC34B107D9F70E94FA000C940E010C9429
S11300800000813021F488B3886088BB03C088B342
S1130090877F88BB88B38F7E88BB6FB9779BFECF81
S11300A088B3806188BB089587B38C6B87BB81E577
S11300B08DB988B38B7F88BB87EA91E60197F1F706
S11300C000C0000088B3846088BB61E280E00E94C5
S11300D041006AEB80E00E94410064E080E00E94FD
S11300E0410064E180E00E94410060E280E00E94FF
S11300F041006CE080E00E94410008951F93CF937B
S1130100DF9390EE980F913618F5182F60E081E098
S11301100E944100C0E0D0E014C0212F30E0205202
S11301203109F901EE0FFF1FEE0FFF1FE20FF31F5E
S1130130E459FF4FEC0FFD1F608181E00E944100F4
S11301402196C530D1054CF360E081E00E94410066
S1130150DF91CF911F910895CF93DF93C0E0D0E05A
S113016005C060E081E00E9441002196C83F81E023
S1130170D807BCF3DF91CF910895CF939BEA899F71
S1130180C12D1124C695C695C6952C2F220FC20FDA
S11301902C2F220F220FC82FC21B699F812D1124DF
S11301A086958695982F990F890F982F990F862FEA
S11301B0891B60E4680F80E00E9441006C2F660F89
S11301C0660F660F6C1B605880E00E944100CF915F
S11301D00895CF93DF93EC01862F642F0E94BD0016
S11301E003C021960E947E0088818111FACFDF919D
S11301F0CF9108950E9454000E94AC0040E061E059
S113020080E690E00E94E9002FE38DE093E0215026
S113021080409040E1F700C00000F6CFF894FFCF93
S113022048656C6C6F20576F726C640000000000AE
S11302300000005F00000007000700147F147F1413
S1130240242A7F2A12231308646236495522500057
S113025005030000001C2241000041221C00140878
S11302603E081408083E080800503000000808083A
S11302700808006060000020100804023E5149454F
S11302803E00427F400042615149462141454B3185
S11302901814127F1027454545393C4A4949300115
S11302A0710905033649494936064949291E00366C
S11302B036000000563600000814224100141414BD
S11302C014140041221408020151090632497941EB
S11302D03E7E1111117E7F494949363E41414122FA
S11302E07F4141221C7F494949417F090909013E57
S11302F04149497A7F0808087F00417F4100204036
S1130300413F017F081422417F404040407F020C5E
S1130310027F7F0408107F3E4141413E7F09090965
S1130320063E4151215E7F09192946464949493112
S113033001017F01013F4040403F1F2040201F3FFB
S11303404038403F6314081463070870080761517C
S1130350494543007F414100020408102000414107
S11303607F000402010204404040404000010204B6
S11303700020545454787F4844443838444444203A
S1130380384444487F3854545418087E0901020CF8
S11303905252523E7F0804047800447D40002040BD
S11303A0443D007F1028440000417F40007C041835
S11303B004787C0804047838444444387C141414C5
S11303C008081414187C7C08040408485454542065
S11303D0043F4440203C4040207C1C2040201C3CE6
S11303E04030403C44281028440C5050503C446455
S11303F0544C44000836410000007F0000004136A0
S10F0400080010080810087846414678EF
S9030000FC
