S0180000706364383534342D61746D65676131362E73726563FD
S11300000C942A000C9447000C9447000C9447006D
S11300100C9447000C9447000C9447000C94470040
S11300200C9447000C9447000C9447000C94470030
S11300300C9447000C9447000C9447000C94470020
S11300400C9447000C9447000C9447000C94470010
S11300500C94470011241FBECFE5D4E0DEBFCDBF12
S113006012E0A0E6B0E0EEEEFBE002C005900D92D7
S1130070A438B107D9F722E0A4E8B2E001C01D9288
S1130080A538B207E1F70E9485010C94F5050C949C
S1130090000020E030E01AC0F901EE0FFF1FEE0F60
S11300A0FF1FE05AFF4F408151814817590761F4FF
S11300B0F901EE0FFF1FEE0FFF1FE05AFF4F4281C1
S11300C053814617570741F02F5F3F4F25303105C5
S11300D01CF380E090E0089581E090E0089581B3FE
S11300E08C6081BB81B38F7E81BB82B3846082BB11
S11300F082B3877F82BB00C000C00000089582B332
S11301008B7F82BB00C000C0000082B3846082BBCE
S113011000C000C0000020E080E00CC0880F84997B
S1130120816092B3986092BB00C092B3977F92BBF8
S113013000C02F5F283090F30895CF93C0E008C02B
S113014061E08C2F0E94CE0283E20E948F02CF5F77
S1130150CC30B0F3C0E008C065E08C2F0E94CE0222
S113016083E20E948F02CF5FCC30B0F3C1E00FC0B6
S11301706C2F80E00E94CE0283E20E948F026C2FDB
S11301808BE00E94CE0283E20E948F02CF5FC530D3
S113019078F3CF9108950F931F93CF93DF93CDB747
S11301A0DEB760970FB6F894DEBF0FBECDBF1F92C7
S11301B06F931F928F9384E790E09F938F938E01A8
S11301C00F5F1F4F1F930F930E940B0340E060E0EB
S11301D0C8010E94FA020FB6F894DEBF0FBECDBF6D
S11301E060960FB6F894DEBF0FBECDBFDF91CF91FE
S11301F01F910F91089542E064E084E890E00E942A
S1130200FA02089542E063E08DE890E00E94FA0269
S113021008950F931F93CF93DF93CDB7DEB7609705
S11302200FB6F894DEBF0FBECDBF1F928F9388E93F
S113023090E09F938F938E010F5F1F4F1F930F9337
S11302400E940B0344E060E0C8010E94FA020F9090
S11302500F900F900F900F900F9060960FB6F89438
S1130260DEBF0FBECDBFDF91CF911F910F910895D7
S1130270CF93DF93C0E0D0E00FC0FE01EE0FFF1F6D
S1130280EE0FFF1FE05AFF4F628180810E94CE0271
S113029080E40E948F022196C530D10574F3DF916A
S11302A0CF910895EF92FF920F931F93CF93DF9313
S11302B0EC018B017A0181E0888384E0FB01808377
S11302C00E94BD020E949D000E943801F8016081D5
S11302D088810E94CB0062E08AE00E94CE0288E519
S11302E00E948F02F801608188810E94CE028AE216
S11302F00E948F02F701108210928402DF91CF9145
S11303001F910F91FF90EF900895CF93DF9300D04A
S11303101F92CDB7DEB70E9465020E94BD020E9403
S11303206F0081E0898384E08A831B82AE014D5F84
S11303305F4FBE016E5F7F4FCE0101960E94520156
S113034004E0EE24E39480918402882301F10E9466
S1130350020113E00DC0812F0E9409012FE38DE0FB
S113036093E0215080409040E1F700C0000011501C
S11303701111F1CFAE014D5F5F4FBE016E5F7F4F34
S1130380CE0101960E945201E9800A81DCCF898165
S11303908A3041F48A81823029F48B81811102C030
S11303A081E08B838B818823F1F00E94FB0013E0B2
S11303B00DC0812F0E9409012FE38DE093E02150AD
S11303C080409040E1F700C0000011501111F1CFBE
S11303D0AE014D5F5F4FBE016E5F7F4FCE01019650
S11303E00E945201B0CF0E947F00F9801A8180FDE3
S11303F004C0133010F0115013C081FD04C0143038
S113040010F41F5F0DC082FD05C021E02F1510F40C
S1130410FA9406C083FD04C089E08F1508F0F394B4
S1130420612F70E08F2D90E00E944900892B21F00C
S113043081E08093840287CFEF1002C0011759F145
S1130440602F8E2D0E94CE029AE0E91206C002307F
S113045021F488E50E948F020FC0602F70E08E2D7A
S113046090E00E944900892B21F080E40E948F02D1
S113047003C080E20E948F02F9821A83612F8F2DBC
S11304800E94CE028AE20E948F026A8189810E94C0
S1130490CB00E9800A818FE493EC0197F1F700C067
S11304A0000051CF813021F488B3886088BB03C039
S11304B088B3877F88BB88B38F7E88BB6FB9779BEF
S11304C0FECF88B3806188BB089587B38C6B87BBEC
S11304D081E58DB988B38B7F88BB87EA91E6019764
S11304E0F1F700C0000088B3846088BB61E280E05B
S11304F00E9452026AEB80E00E94520264E080E0B3
S11305000E94520264E180E00E94520260E280E0B4
S11305100E9452026CE080E00E94520208951F93F0
S1130520CF93DF9390EE980F913618F5182F60E073
S113053081E00E945202C0E0D0E014C0212F30E0DC
S113054020523109F901EE0FFF1FEE0FFF1FE20FDA
S1130550F31FEC55FF4FEC0FFD1F608181E00E94FB
S113056052022196C530D1054CF360E081E00E942F
S11305705202DF91CF911F910895CF93DF93C0E092
S1130580D0E005C060E081E00E9452022196C83F9D
S113059081E0D807BCF3DF91CF910895CF939BEA14
S11305A0899FC12D1124C695C695C6952C2F220F5F
S11305B0C20F2C2F220F220FC82FC21B699F812D1F
S11305C0112486958695982F990F890F982F990F46
S11305D0862F891B60E4680F80E00E9452026C2F12
S11305E0660F660F660F6C1B605880E00E94520213
S11305F0CF910895CF93DF93EC01862F642F0E944F
S1130600CE0203C021960E948F0288818111FACF05
S1130610DF91CF910895AEE0B0E0E1E1F3E00C9416
S1130620CC050D891E8986E08C831A8309838FEF9C
S11306309FE79E838D83AE01475E5F4F6F89788D00
S1130640CE0101960E942D03EF81F885E00FF11F82
S113065010822E96E4E00C94E805ABE0B0E0E3E30E
S1130660F3E00C94BE056C017B018A01FC01178246
S11306701682838181FFCCC1CE0101963C01F60133
S11306809381F70193FD859193FF81917F018823E5
S113069009F4BAC1853239F493FD859193FF8191B0
S11306A07F01853229F4B60190E00E942405E7CF4A
S11306B0912C212C312CFFE1F315D8F08B3279F0F9
S11306C038F4803279F08332A1F4232D20611DC0E7
S11306D08D3261F0803369F4232D216016C0832D9F
S11306E08260382EE32DE4603E2E2AC0F32DF8609C
S11306F01DC037FC2DC020ED280F2A3040F08E326B
S1130700B9F436FC81C1232D2064322E19C036FE83
S113071006C08AE0989E200D1124922E11C0EAE0B2
S11307202E9E200D1124222EF32DF0623F2E08C0A0
S11307308C3621F4832D8068382E02C0883641F42B
S1130740F70193FD859193FF81917F018111B3CFCF
S1130750982F9F7D9554933028F40C5F1F4F9FE38F
S113076099830DC0833631F0833771F0833509F0F6
S113077059C021C0F801808189830E5F1F4F8824EE
S11307808394912C530113C02801F2E04F0E511CA5
S1130790F801A080B18036FE03C0692D70E002C06C
S11307A06FEF7FEFC5010E9419054C018201F32D03
S11307B0FF773F2E16C0280122E0420E511CF8019B
S11307C0A080B18036FE03C0692D70E002C06FEFD7
S11307D07FEFC5010E940E054C01F32DF0683F2EFA
S11307E0820133FC1BC0822D90E088169906B0F478
S11307F0B60180E290E00E9424052A94F4CFF5012A
S113080037FC859137FE81915F01B60190E00E942B
S1130810240521102A9421E0821A9108811491045C
S113082071F7E8C0843611F0893641F5F80137FED6
S113083007C060817181828193810C5F1F4F08C062
S113084060817181072E000C880B990B0E5F1F4F7E
S1130850F32DFF763F2E97FF09C0909580957095F4
S113086061957F4F8F4F9F4FF0683F2E2AE030E015
S1130870A3010E946005882E861845C0853731F48F
S1130880232D2F7EB22E2AE030E025C0932D997FB0
S1130890B92E8F36C1F018F4883579F0B5C0803799
S11308A019F0883721F0B0C0E92FE061BE2EB4FE04
S11308B00DC0FB2DF460BF2E09C034FE0AC0292FE1
S11308C02660B22E06C028E030E005C020E130E00A
S11308D002C020E132E0F801B7FE07C060817181F7
S11308E0828193810C5F1F4F06C06081718180E01B
S11308F090E00E5F1F4FA3010E946005882E8618AA
S1130900FB2DFF773F2E36FE0DC0232D2E7FA22E0A
S1130910891458F434FE0BC032FC09C0832D8E7E3A
S1130920A82E05C0B82CA32C03C0B82C01C0B92C28
S1130930A4FE0FC0FE01E80DF11D8081803321F477
S11309409A2D997EA92E09C0A2FE06C0B394B39431
S113095004C08A2D867809F0B394A3FC11C0A0FECC
S113096006C0B21488F4280C922C9B180EC0B21442
S113097060F4B60180E290E00E942405B394F7CFBE
S1130980B21418F42B1802C0982C212CA4FE10C009
S1130990B60180E390E00E942405A2FE17C0A1FCEA
S11309A003C088E790E002C088E590E0B6010CC07F
S11309B08A2D867859F0A1FE02C08BE201C080E244
S11309C0A7FC8DE2B60190E00E942405891438F456
S11309D0B60180E390E00E9424059A94F7CF8A94AC
S11309E0F301E80DF11D8081B60190E00E94240519
S11309F08110F5CF222009F442CEB60180E290E0C6
S1130A000E9424052A94F6CFF6018681978102C0BC
S1130A108FEF9FEF2B96E2E10C94DA05FC01059031
S1130A20615070400110D8F7809590958E0F9F1FEC
S1130A300895FC016150704001900110D8F7809531
S1130A4090958E0F9F1F08950F931F93CF93DF935D
S1130A50FB01238121FD03C08FEF9FEF2CC022FFF8
S1130A6016C046815781248135814217530744F4C7
S1130A70A081B1819D012F5F3F4F318320838C93EF
S1130A80268137812F5F3F4F3783268314C08B0124
S1130A90EC01FB010084F185E02D0995892BE1F639
S1130AA0D80116968D919C911797019617969C9351
S1130AB08E931697CE01DF91CF911F910F910895D8
S1130AC0FA01AA27283051F1203181F1E8946F937B
S1130AD06E7F6E5F7F4F8F4F9F4FAF4FB1E03ED021
S1130AE0B4E03CD0670F781F891F9A1FA11D680FBF
S1130AF0791F8A1F911DA11D6A0F711D811D911DF2
S1130B00A11D20D009F468943F912AE0269F112466
S1130B103019305D3193DEF6CF010895462F4770CA
S1130B20405D4193B3E00FD0C9F7F6CF462F4F7025
S1130B30405D4A3318F0495D31FD4052419302D083
S1130B40A9F7EACFB4E0A695979587957795679529
S1130B50BA95C9F700976105710508959B01AC0129
S1130B600A2E06945795479537952795BA95C9F750
S1130B70620F731F841F951FA01D08952F923F922B
S1130B804F925F926F927F928F929F92AF92BF9299
S1130B90CF92DF92EF92FF920F931F93CF93DF9345
S1130BA0CDB7DEB7CA1BDB0B0FB6F894DEBF0FBEA2
S1130BB0CDBF09942A88398848885F846E847D84EF
S1130BC08C849B84AA84B984C884DF80EE80FD80F1
S1130BD00C811B81AA81B981CE0FD11D0FB6F89467
S1110BE0DEBF0FBECDBFED010895F894FFCF28
S1130BEE03000400050002000600040008000300D0
S1130BFE09000200583A202530326420593A202543
S1130C0E30326400596F752057696E210047616D4B
S1130C1E65204F76657221004E65787420696E3AB0
S1130C2E20256400000000000000005F00000007A3
S1130C3E000700147F147F14242A7F2A122313081A
S1130C4E646236495522500005030000001C2241FF
S1130C5E000041221C0014083E081408083E08082F
S1130C6E00503000000808080808006060000020EA
S1130C7E100804023E5149453E00427F4000426145
S1130C8E5149462141454B311814127F10274545D1
S1130C9E45393C4A494930017109050336494949E8
S1130CAE36064949291E0036360000005636000025
S1130CBE08142241001414141414004122140802BE
S1130CCE01510906324979413E7E1111117E7F4947
S1130CDE4949363E414141227F4141221C7F4949C7
S1130CEE49417F090909013E4149497A7F080808AB
S1130CFE7F00417F41002040413F017F0814224183
S1130D0E7F404040407F020C027F7F0408107F3EEC
S1130D1E4141413E7F090909063E4151215E7F0949
S1130D2E192946464949493101017F01013F404095
S1130D3E403F1F2040201F3F4038403F631408149B
S1130D4E6307087008076151494543007F4141001C
S1130D5E02040810200041417F00040201020440F5
S1130D6E40404040000102040020545454787F480F
S1130D7E4444383844444420384444487F38545416
S1130D8E5418087E0901020C5252523E7F08040484
S1130D9E7800447D40002040443D007F10284400EC
S1130DAE00417F40007C041804787C0804047838E1
S1130DBE444444387C14141408081414187C7C0815
S1130DCE0404084854545420043F4440203C4040FA
S1130DDE207C1C2040201C3C4030403C44281028E1
S1130DEE440C5050503C4464544C4400083641006A
S1130DFE00007F0000004136080010080810087833
S1070E0E4641467897
S9030000FC
