:100000000C942A000C943F000C943F000C943F0089
:100010000C943F000C943F000C943F000C943F0064
:100020000C943F000C943F000C943F000C943F0054
:100030000C943F000C943F000C943F000C943F0044
:100040000C943F000C943F000C943F000C943F0034
:100050000C943F0011241FBECFE5D4E0DEBFCDBF1E
:1000600012E0A0E6B0E0ECE6F9E002C005900D92E7
:10007000AC34B107D9F70E946C000C94B4040C9412
:10008000000081B38C6081BB81B38F7E81BB82B362
:10009000846082BB82B3877F82BB089582B38B7FEB
:1000A00082BB00C000C0000082B3846082BB00C07D
:1000B00000C0000020E080E00CC0880F84998160BF
:1000C00092B3986092BB00C092B3977F92BB00C07E
:1000D0002F5F283090F30895CF93DF93CDB7DEB72D
:1000E00060970FB6F894DEBF0FBECDBF0E9424010B
:1000F0000E947C010E94410012E003E00E944E0039
:1001000080FD1FC01123E9F011500E947C011F9255
:100110001F931F920F9380E690E09F938F93CE01E1
:1001200001967C019F938F930E94CA0140E060E09A
:10013000C7010E94B9010FB6F894DEBF0FBECDBF54
:1001400062C081FD1FC01530E8F41F5F0E947C0172
:100150001F921F931F920F9380E690E09F938F93BF
:10016000CE0101967C019F938F930E94CA0140E0CB
:1001700060E0C7010E94B9010FB6F894DEBF0FBE60
:10018000CDBF41C082FD1FC00023E9F001500E9495
:100190007C011F921F931F920F9380E690E09F9324
:1001A0008F93CE0101967C019F938F930E94CA0189
:1001B00040E060E0C7010E94B9010FB6F894DEBFCD
:1001C0000FBECDBF20C083FD1EC00B30E0F40F5F1B
:1001D0000E947C011F921F931F920F9380E690E074
:1001E0009F938F93CE0101967C019F938F930E94E2
:1001F000CA0140E060E0C7010E94B9010FB6F8945F
:10020000DEBF0FBECDBF612F802F0E948D018AE21D
:100210000E944E018FE493EC0197F1F700C00000BB
:100220006DCF813021F488B3886088BB03C088B368
:10023000877F88BB88B38F7E88BB6FB9779BFECFE3
:1002400088B3806188BB089587B38C6B87BB81E5D9
:100250008DB988B38B7F88BB87EA91E60197F1F768
:1002600000C0000088B3846088BB61E280E00E9427
:1002700011016AEB80E00E94110164E080E00E94BD
:10028000110164E180E00E94110160E280E00E94BF
:1002900011016CE080E00E94110108951F93CF933B
:1002A000DF9390EE980F913618F5182F60E081E0FB
:1002B0000E941101C0E0D0E014C0212F30E0205294
:1002C0003109F901EE0FFF1FEE0FFF1FE20FF31FC1
:1002D000E459FF4FEC0FFD1F608181E00E94110186
:1002E0002196C530D1054CF360E081E00E941101F8
:1002F000DF91CF911F910895CF93DF93C0E0D0E0BD
:1003000005C060E081E00E9411012196C83F81E0B4
:10031000D807BCF3DF91CF910895CF939BEA899FD3
:10032000C12D1124C695C695C6952C2F220FC20F3C
:100330002C2F220F220FC82FC21B699F812D112441
:1003400086958695982F990F890F982F990F862F4C
:10035000891B60E4680F80E00E9411016C2F660F1A
:10036000660F660F6C1B605880E00E941101CF91F0
:100370000895CF93DF93EC01862F642F0E948D01A7
:1003800003C021960E944E0188818111FACFDF912E
:10039000CF910895AEE0B0E0E0EDF1E00C948B0475
:1003A0000D891E8986E08C831A8309838FEF9FE76E
:1003B0009E838D83AE01475E5F4F6F89788DCE013E
:1003C00001960E94EC01EF81F885E00FF11F108289
:1003D0002E96E4E00C94A704ABE0B0E0E2EFF1E08D
:1003E0000C947D046C017B018A01FC01178216824A
:1003F000838181FFCCC1CE0101963C01F60193813E
:10040000F70193FD859193FF81917F01882309F482
:10041000BAC1853239F493FD859193FF81917F01B3
:10042000853229F4B60190E00E94E303E7CF912CD6
:10043000212C312CFFE1F315D8F08B3279F038F410
:10044000803279F08332A1F4232D20611DC08D32DA
:1004500061F0803369F4232D216016C0832D826002
:10046000382EE32DE4603E2E2AC0F32DF8601DC027
:1004700037FC2DC020ED280F2A3040F08E32B9F421
:1004800036FC81C1232D2064322E19C036FE06C0F1
:100490008AE0989E200D1124922E11C0EAE02E9E33
:1004A000200D1124222EF32DF0623F2E08C08C3631
:1004B00021F4832D8068382E02C0883641F4F7017C
:1004C00093FD859193FF81917F018111B3CF982F87
:1004D0009F7D9554933028F40C5F1F4F9FE39983C1
:1004E0000DC0833631F0833771F0833509F059C080
:1004F00021C0F801808189830E5F1F4F8824839477
:10050000912C530113C02801F2E04F0E511CF80149
:10051000A080B18036FE03C0692D70E002C06FEF8D
:100520007FEFC5010E94D8034C018201F32DFF77B4
:100530003F2E16C0280122E0420E511CF801A08077
:10054000B18036FE03C0692D70E002C06FEF7FEF0F
:10055000C5010E94CD034C01F32DF0683F2E8201AE
:1005600033FC1BC0822D90E088169906B0F4B601CA
:1005700080E290E00E94E3032A94F4CFF50137FC77
:10058000859137FE81915F01B60190E00E94E303FF
:1005900021102A9421E0821A91088114910471F7A4
:1005A000E8C0843611F0893641F5F80137FE07C0FE
:1005B00060817181828193810C5F1F4F08C06081CF
:1005C0007181072E000C880B990B0E5F1F4FF32DC6
:1005D000FF763F2E97FF09C09095809570956195A5
:1005E0007F4F8F4F9F4FF0683F2E2AE030E0A301EE
:1005F0000E941F04882E861845C0853731F4232DAC
:100600002F7EB22E2AE030E025C0932D997FB92E9F
:100610008F36C1F018F4883579F0B5C0803719F0FD
:10062000883721F0B0C0E92FE061BE2EB4FE0DC0C6
:10063000FB2DF460BF2E09C034FE0AC0292F2660AE
:10064000B22E06C028E030E005C020E130E002C054
:1006500020E132E0F801B7FE07C06081718182813C
:1006600093810C5F1F4F06C06081718180E090E034
:100670000E5F1F4FA3010E941F04882E8618FB2DBA
:10068000FF773F2E36FE0DC0232D2E7FA22E89141C
:1006900058F434FE0BC032FC09C0832D8E7EA82E88
:1006A00005C0B82CA32C03C0B82C01C0B92CA4FEE3
:1006B0000FC0FE01E80DF11D8081803321F49A2DD9
:1006C000997EA92E09C0A2FE06C0B394B39404C0BB
:1006D0008A2D867809F0B394A3FC11C0A0FE06C051
:1006E000B21488F4280C922C9B180EC0B21460F43B
:1006F000B60180E290E00E94E303B394F7CFB21416
:1007000018F42B1802C0982C212CA4FE10C0B6019E
:1007100080E390E00E94E303A2FE17C0A1FC03C0A7
:1007200088E790E002C088E590E0B6010CC08A2D11
:10073000867859F0A1FE02C08BE201C080E2A7FCDE
:100740008DE2B60190E00E94E303891438F4B6010B
:1007500080E390E00E94E3039A94F7CF8A94F30138
:10076000E80DF11D8081B60190E00E94E303811045
:10077000F5CF222009F442CEB60180E290E00E943B
:10078000E3032A94F6CFF6018681978102C08FEFAA
:100790009FEF2B96E2E10C949904FC0105906150C7
:1007A00070400110D8F7809590958E0F9F1F089587
:1007B000FC016150704001900110D8F78095909530
:1007C0008E0F9F1F08950F931F93CF93DF93FB010D
:1007D000238121FD03C08FEF9FEF2CC022FF16C0A5
:1007E00046815781248135814217530744F4A08103
:1007F000B1819D012F5F3F4F318320838C932681F0
:1008000037812F5F3F4F3783268314C08B01EC0164
:10081000FB010084F185E02D0995892BE1F6D801D3
:1008200016968D919C911797019617969C938E938F
:100830001697CE01DF91CF911F910F910895FA0184
:10084000AA27283051F1203181F1E8946F936E7F0F
:100850006E5F7F4F8F4F9F4FAF4FB1E03ED0B4E000
:100860003CD0670F781F891F9A1FA11D680F791F41
:100870008A1F911DA11D6A0F711D811D911DA11D52
:1008800020D009F468943F912AE0269F1124301962
:10089000305D3193DEF6CF010895462F4770405DFD
:1008A0004193B3E00FD0C9F7F6CF462F4F70405DAC
:1008B0004A3318F0495D31FD4052419302D0A9F707
:1008C000EACFB4E0A6959795879577956795BA9501
:1008D000C9F700976105710508959B01AC010A2EC7
:1008E00006945795479537952795BA95C9F7620F9E
:1008F000731F841F951FA01D08952F923F924F9242
:100900005F926F927F928F929F92AF92BF92CF929F
:10091000DF92EF92FF920F931F93CF93DF93CDB7A8
:10092000DEB7CA1BDB0B0FB6F894DEBF0FBECDBF20
:1009300009942A88398848885F846E847D848C84F1
:100940009B84AA84B984C884DF80EE80FD800C81FA
:100950001B81AA81B981CE0FD11D0FB6F894DEBFDD
:0C0960000FBECDBFED010895F894FFCF4D
:10096C00583A20256420593A2025640000000000E4
:10097C000000005F00000007000700147F147F14C4
:10098C00242A7F2A12231308646236495522500008
:10099C0005030000001C2241000041221C00140829
:1009AC003E081408083E08080050300000080808EB
:1009BC000808006060000020100804023E51494500
:1009CC003E00427F400042615149462141454B3136
:1009DC001814127F1027454545393C4A49493001C6
:1009EC00710905033649494936064949291E00361D
:1009FC00360000005636000008142241001414146E
:100A0C00141400412214080201510906324979419B
:100A1C003E7E1111117E7F494949363E41414122AA
:100A2C007F4141221C7F494949417F090909013E07
:100A3C004149497A7F0808087F00417F41002040E6
:100A4C00413F017F081422417F404040407F020C0F
:100A5C00027F7F0408107F3E4141413E7F09090916
:100A6C00063E4151215E7F091929464649494931C3
:100A7C0001017F01013F4040403F1F2040201F3FAC
:100A8C004038403F6314081463070870080761512D
:100A9C00494543007F4141000204081020004141B8
:100AAC007F00040201020440404040400001020467
:100ABC000020545454787F484444383844444420EB
:100ACC00384444487F3854545418087E0901020CA9
:100ADC005252523E7F0804047800447D400020406E
:100AEC00443D007F1028440000417F40007C0418E6
:100AFC0004787C0804047838444444387C14141476
:100B0C0008081414187C7C08040408485454542015
:100B1C00043F4440203C4040207C1C2040201C3C96
:100B2C004030403C44281028440C5050503C446405
:100B3C00544C44000836410000007F000000413650
:0C0B4C00080010080810087846414678A0
:00000001FF
