S0180000706364383534342D61746D65676131362E73726563FD
S11300000C942A000C943F000C943F000C943F0085
S11300100C943F000C943F000C943F000C943F0060
S11300200C943F000C943F000C943F000C943F0050
S11300300C943F000C943F000C943F000C943F0040
S11300400C943F000C943F000C943F000C943F0030
S11300500C943F0011241FBECFE5D4E0DEBFCDBF1A
S113006012E0A0E6B0E0E2EDF8E002C005900D92E7
S1130070AC34B107D9F70E9474000C9467040C9453
S1130080000081B38C6081BB81B38F7E81BB82B35E
S1130090846082BB82B3877F82BB089582B38B7FE7
S11300A082BB8AE18A95F1F700C082B3846082BB87
S11300B09AE19A95F1F700C020E080E012C0880F21
S11300C08499816092B3986092BB9AE09A95F1F713
S11300D000C092B3977F92BB9AE09A95F1F700C063
S11300E02F5F283060F30895CF93DF93CDB7DEB749
S11300F060970FB6F894DEBF0FBECDBF0E94D70045
S11301000E942F010E9441000E944E008F3F79F50A
S113011031C0092F10E047E050E0401B510B282F5D
S113012030E002C0359527954A95E2F720FD1DC0C1
S11301300E942F010F5F1F4F1F930F9380E690E0E3
S11301409F938F938E010F5F1F4F1F930F930E94F6
S11301507D0141E061E0C8010E946C010F900F90A5
S11301600F900F900F900F9005C09F5F01C090E01B
S1130170983078F22FEF81EE94E021508040904047
S1130180E1F700C00000C0CF813021F488B388605B
S113019088BB03C088B3877F88BB88B38F7E88BB46
S11301A06FB9779BFECF88B3806188BB089587B30E
S11301B08C6B87BB81E58DB988B38B7F88BB87EA5D
S11301C091E60197F1F700C0000088B3846088BB12
S11301D061E280E00E94C4006AEB80E00E94C400F7
S11301E064E080E00E94C40064E180E00E94C400F6
S11301F060E280E00E94C4006CE080E00E94C400E1
S113020008951F93CF93DF9390EE980F913618F5CE
S1130210182F60E081E00E94C400C0E0D0E014C068
S1130220212F30E020523109F901EE0FFF1FEE0FAC
S1130230FF1FE20FF31FE559FF4FEC0FFD1F608115
S113024081E00E94C4002196C530D1054CF360E0E2
S113025081E00E94C400DF91CF911F910895CF9354
S1130260DF93C0E0D0E005C060E081E00E94C400FC
S11302702196C83F81E0D807BCF3DF91CF91089560
S1130280CF939BEA899FC12D1124C695C695C69527
S11302902C2F220FC20F2C2F220F220FC82FC21B6C
S11302A0699F812D112486958695982F990F890F22
S11302B0982F990F862F891B60E4680F80E00E94B5
S11302C0C4006C2F660F660F660F6C1B605880E0CD
S11302D00E94C400CF910895CF93DF93EC01862F41
S11302E0642F0E94400103C021960E94010188816D
S11302F08111FACFDF91CF910895AEE0B0E0E3E849
S1130300F1E00C943E040D891E8986E08C831A83E7
S113031009838FEF9FE79E838D83AE01475E5F4F16
S11303206F89788DCE0101960E949F01EF81F88537
S1130330E00FF11F10822E96E4E00C945A04ABE017
S1130340B0E0E5EAF1E00C9430046C017B018A0131
S1130350FC0117821682838181FFCCC1CE010196F4
S11303603C01F6019381F70193FD859193FF8191FF
S11303707F01882309F4BAC1853239F493FD85914C
S113038093FF81917F01853229F4B60190E00E94A8
S11303909603E7CF912C212C312CFFE1F315D8F0F3
S11303A08B3279F038F4803279F08332A1F4232D42
S11303B020611DC08D3261F0803369F4232D2160EA
S11303C016C0832D8260382EE32DE4603E2E2AC0B1
S11303D0F32DF8601DC037FC2DC020ED280F2A3006
S11303E040F08E32B9F436FC81C1232D2064322EC4
S11303F019C036FE06C08AE0989E200D1124922E64
S113040011C0EAE02E9E200D1124222EF32DF0625D
S11304103F2E08C08C3621F4832D8068382E02C00C
S1130420883641F4F70193FD859193FF81917F0113
S11304308111B3CF982F9F7D9554933028F40C5F8E
S11304401F4F9FE399830DC0833631F0833771F0DA
S1130450833509F059C021C0F801808189830E5F7A
S11304601F4F88248394912C530113C02801F2E078
S11304704F0E511CF801A080B18036FE03C0692DD7
S113048070E002C06FEF7FEFC5010E948B034C0147
S11304908201F32DFF773F2E16C0280122E0420E81
S11304A0511CF801A080B18036FE03C0692D70E0B4
S11304B002C06FEF7FEFC5010E9480034C01F32D52
S11304C0F0683F2E820133FC1BC0822D90E0881619
S11304D09906B0F4B60180E290E00E9496032A9453
S11304E0F4CFF50137FC859137FE81915F01B601A8
S11304F090E00E94960321102A9421E0821A910828
S11305008114910471F7E8C0843611F0893641F5FD
S1130510F80137FE07C060817181828193810C5F8D
S11305201F4F08C060817181072E000C880B990B46
S11305300E5F1F4FF32DFF763F2E97FF09C0909556
S11305408095709561957F4F8F4F9F4FF0683F2E38
S11305502AE030E0A3010E94D203882E861845C009
S1130560853731F4232D2F7EB22E2AE030E025C0CA
S1130570932D997FB92E8F36C1F018F4883579F010
S1130580B5C0803719F0883721F0B0C0E92FE06199
S1130590BE2EB4FE0DC0FB2DF460BF2E09C034FE88
S11305A00AC0292F2660B22E06C028E030E005C01C
S11305B020E130E002C020E132E0F801B7FE07C0DC
S11305C060817181828193810C5F1F4F06C06081BD
S11305D0718180E090E00E5F1F4FA3010E94D2035F
S11305E0882E8618FB2DFF773F2E36FE0DC0232D57
S11305F02E7FA22E891458F434FE0BC032FC09C09D
S1130600832D8E7EA82E05C0B82CA32C03C0B82C35
S113061001C0B92CA4FE0FC0FE01E80DF11D8081BC
S1130620803321F49A2D997EA92E09C0A2FE06C01A
S1130630B394B39404C08A2D867809F0B394A3FCD0
S113064011C0A0FE06C0B21488F4280C922C9B188A
S11306500EC0B21460F4B60180E290E00E949603EA
S1130660B394F7CFB21418F42B1802C0982C212C91
S1130670A4FE10C0B60180E390E00E949603A2FE9F
S113068017C0A1FC03C088E790E002C088E590E0B1
S1130690B6010CC08A2D867859F0A1FE02C08BE207
S11306A001C080E2A7FC8DE2B60190E00E949603AF
S11306B0891438F4B60180E390E00E9496039A947A
S11306C0F7CF8A94F301E80DF11D8081B60190E023
S11306D00E9496038110F5CF222009F442CEB60180
S11306E080E290E00E9496032A94F6CFF601868178
S11306F0978102C08FEF9FEF2B96E2E10C944C049C
S1130700FC010590615070400110D8F780959095D8
S11307108E0F9F1F0895FC016150704001900110DD
S1130720D8F7809590958E0F9F1F08950F931F9370
S1130730CF93DF93FB01238121FD03C08FEF9FEF54
S11307402CC022FF16C0468157812481358142176F
S1130750530744F4A081B1819D012F5F3F4F318342
S113076020838C93268137812F5F3F4F37832683E5
S113077014C08B01EC01FB010084F185E02D099587
S1130780892BE1F6D80116968D919C9117970196C5
S113079017969C938E931697CE01DF91CF911F915C
S11307A00F910895FA01AA27283051F1203181F1DF
S11307B0E8946F936E7F6E5F7F4F8F4F9F4FAF4F65
S11307C0B1E03ED0B4E03CD0670F781F891F9A1F78
S11307D0A11D680F791F8A1F911DA11D6A0F711D2C
S11307E0811D911DA11D20D009F468943F912AE038
S11307F0269F11243019305D3193DEF6CF01089520
S1130800462F4770405D4193B3E00FD0C9F7F6CF50
S1130810462F4F70405D4A3318F0495D31FD405218
S1130820419302D0A9F7EACFB4E0A69597958795AE
S113083077956795BA95C9F700976105710508958D
S11308409B01AC010A2E0694579547953795279539
S1130850BA95C9F7620F731F841F951FA01D0895D1
S11308602F923F924F925F926F927F928F929F92BC
S1130870AF92BF92CF92DF92EF92FF920F931F93AA
S1130880CF93DF93CDB7DEB7CA1BDB0B0FB6F8945B
S1130890DEBF0FBECDBF09942A88398848885F849B
S11308A06E847D848C849B84AA84B984C884DF800C
S11308B0EE80FD800C811B81AA81B981CE0FD11DF0
S11308C00FB6F894DEBF0FBECDBFED010895F894C6
S10508D0FFCF54
S11308D2427574746F6E3A202564000000000000B3
S11308E200005F00000007000700147F147F142437
S11308F22A7F2A12231308646236495522500005BE
S1130902030000001C2241000041221C0014083E86
S1130912081408083E0808005030000008080808B7
S113092208006060000020100804023E5149453E60
S113093200427F400042615149462141454B3118F2
S113094214127F1027454545393C4A494930017103
S11309520905033649494936064949291E003636EE
S11309620000005636000008142241001414141426
S11309721400412214080201510906324979413E08
S11309827E1111117E7F494949363E414141227F00
S11309924141221C7F494949417F090909013E41DC
S11309A249497A7F0808087F00417F41002040417D
S11309B23F017F081422417F404040407F020C02E5
S11309C27F7F0408107F3E4141413E7F09090906A9
S11309D23E4151215E7F091929464649494931015F
S11309E2017F01013F4040403F1F2040201F3F4004
S11309F238403F63140814630708700807615149BB
S1130A024543007F41410002040810200041417F18
S1130A12000402010204404040404000010204007C
S1130A2220545454787F4844443838444444203849
S1130A324444487F3854545418087E0901020C5225
S1130A4252523E7F0804047800447D400020404412
S1130A523D007F1028440000417F40007C041804BC
S1130A62787C0804047838444444387C1414140808
S1130A72081414187C7C08040408485454542004B0
S1130A823F4440203C4040207C1C2040201C3C40F1
S1130A9230403C44281028440C5050503C44645488
S1130AA24C44000836410000007F00000041360833
S10F0AB20010080810087846414678003F
S9030000FC
