S00F000068656C6C6F2D632E7372656371
S11300000C942A000C943F000C943F000C943F0085
S11300100C943F000C943F000C943F000C943F0060
S11300200C943F000C943F000C943F000C943F0050
S11300300C943F000C943F000C943F000C943F0040
S11300400C943F000C943F000C943F000C943F0030
S11300500C943F0011241FBECFE5D4E0DEBFCDBF1A
S113006010E0A0E6B0E0ECE3F1E002C005900D92F0
S1130070AA37B107D9F70E9454000C949C000C9441
S11300800000882311F0C39A01C0C398C49888E083
S113009067FF02C0C59A01C0C598C79A660FC79882
S11300A08150B1F7C49A089587B38C6B87BBC2980B
S11300B083EC99E00197F1F700C00000C29A61E275
S11300C080E00E94410061EB80E00E94410064E016
S11300D080E00E94410064E180E00E94410060E20F
S11300E080E00E9441006CE080E00E944100C8EF83
S11300F0D1E060E081E00E9441002197D1F780E6E1
S1130100E82E80E0F82E15E0C0E0D0E0F701EC0F17
S1130110FD1F608181E00E9441002196C530D10518
S1130120A9F760E081E00E944100115095E0E90EDA
S10F0130F11C1111E9CFFFCFF894FFCFB0
S113013C7F0808087F385454541800417F4000004D
S10D014C417F400038444444380069
S9030000FC
